:020000040800F2
:1000000000800120715000088D4F00088F4F0008BC
:10001000914F0008934F0008954F00080000000022
:10002000000000000000000000000000974F0008E2
:10003000994F0008000000009B4F00089D4F0008EA
:10004000C1500008C1500008C1500008C15000084C
:10005000C1500008C1500008C1500008C15000083C
:10006000C1500008C1500008C1500008C15000082C
:10007000C1500008C1500008C1500008C15000081C
:10008000C1500008C1500008C1500008C15000080C
:10009000C1500008C1500008C1500008A14F00081D
:1000A000C1500008C1500008C1500008C1500008EC
:1000B000C1500008C1500008C1500008C1500008DC
:1000C000C1500008C1500008C1500008C1500008CC
:1000D000C1500008C1500008C1500008C1500008BC
:1000E000C54F0008C1500008C1500008C1500008A9
:1000F000C1500008C1500008C1500008C15000089C
:10010000C1500008C1500008C1500008C15000088B
:10011000C1500008C1500008C1500008C15000087B
:10012000C1500008C1500008C1500008C15000086B
:10013000C1500008C1500008C1500008C15000085B
:10014000C1500008C1500008C1500008C15000084B
:10015000C1500008C1500008C1500008C15000083B
:10016000C1500008C1500008C1500008C15000082B
:10017000C1500008C150000800000000000000004D
:08018000C1500008C150000845
:1001880010B5054C237833B9044B13B10448AFF3C9
:1001980000800123237010BD20050020000000000E
:1001A8009058000808B5034B1BB103490348AFF347
:1001B800008008BD000000002405002090580008B9
:1001C80081F0004102E000BF83F0004330B54FEA00
:1001D80041044FEA430594EA050F08BF90EA020F6D
:1001E8001FBF54EA000C55EA020C7FEA645C7FEA00
:1001F800655C00F0E2804FEA5454D4EB5555B8BF23
:100208006D420CDD2C4480EA020281EA030382EA93
:10021800000083EA010180EA020281EA0303362D25
:1002280088BF30BD11F0004F4FEA01314FF4801CF8
:100238004CEA113102D0404261EB410113F0004F0A
:100248004FEA03334CEA133302D0524263EB4303C1
:1002580094EA050F00F0A780A4F10104D5F1200E5F
:100268000DDB02FA0EFC22FA05F2801841F10001BA
:1002780003FA0EF2801843FA05F359410EE0A5F18E
:1002880020050EF1200E012A03FA0EFC28BF4CF0BF
:10029800020C43FA05F3C01851EBE37101F0004575
:1002A80007D54FF0000EDCF1000C7EEB00006EEB82
:1002B8000101B1F5801F1BD3B1F5001F0CD349080C
:1002C8005FEA30004FEA3C0C04F101044FEA445263
:1002D80012F5800F80F09A80BCF1004F08BF5FEAEA
:1002E800500C50F1000041EB045141EA050130BDCA
:1002F8005FEA4C0C404141EB010111F4801FA4F16D
:100308000104E9D191F0000F04BF01460020B1FAC1
:1003180081F308BF2033A3F10B03B3F120020CDAF9
:100328000C3208DD02F1140CC2F10C0201FA0CF0D7
:1003380021FA02F10CE002F11402D8BFC2F1200C3C
:1003480001FA02F120FA0CFCDCBF41EA0C019040F2
:10035800E41AA2BF01EB0451294330BD6FEA04043B
:100368001F3C1CDA0C340EDC04F11404C4F1200226
:1003780020FA04F001FA02F340EA030021FA04F338
:1003880045EA030130BDC4F10C04C4F1200220FA8F
:1003980002F001FA04F340EA0300294630BD21FACD
:1003A80004F0294630BD94F0000F83F4801306BF93
:1003B80081F480110134013D4EE77FEA645C18BF87
:1003C8007FEA655C29D094EA050F08BF90EA020F1E
:1003D80005D054EA000C04BF1946104630BD91EA16
:1003E800030F1EBF0021002030BD5FEA545C05D119
:1003F8004000494128BF41F0004130BD14F5800458
:100408003CBF01F5801130BD01F0004545F0FE41CB
:1004180041F470014FF0000030BD7FEA645C1ABF00
:10042800194610467FEA655C1CBF0B46024650EA37
:10043800013406BF52EA033591EA030F41F4002163
:1004480030BD00BF90F0000F04BF0021704730B5E9
:100458004FF4806404F132044FF000054FF00001BE
:1004680050E700BF90F0000F04BF0021704730B57F
:100478004FF4806404F1320410F0004548BF404254
:100488004FF000013EE700BF42004FEAE2014FEAA9
:1004980031014FEA02701FBF12F07F4393F07F4F84
:1004A80081F06051704792F0000F14BF93F07F4FB6
:1004B800704730B54FF4607401F0004521F00041F9
:1004C80020E700BF50EA010208BF704730B54FF07F
:1004D80000050AE050EA010208BF704730B511F084
:1004E800004502D5404261EB41014FF4806404F1BC
:1004F80032045FEA915C3FF4DCAE4FF003025FEA3E
:10050800DC0C18BF03325FEADC0C18BF033202EBC5
:10051800DC02C2F1200300FA03FC20FA02F001FA1F
:1005280003FE40EA0E0021FA02F11444C1E600BFBE
:100538004FEA4102B2F1E04324BFB3F5001CDCF1FD
:10054800FE5C0DD901F0004C4FEAC0024CEA507035
:10055800B2F1004F40EB830008BF20F00100704764
:1005680011F0804F21D113F13872BCBF01F0004067
:10057800704741F480114FEA5252C2F11802C2F199
:10058800200C10FA0CF320FA02F018BF40F001001A
:100598004FEAC1234FEAD32303FA0CFC40EA0C00CC
:1005A80023FA02F34FEA4303CCE77FEA625307D109
:1005B80050EA01331EBF4FF0FE4040F44000704740
:1005C80001F0004040F0FE4040F40000704700BFDA
:1005D80053B94AB9002908BF00281CBF4FF0FF31A2
:1005E8004FF0FF3000F07AB9ADF1080C6DE904CE98
:1005F80000F006F8DDF804E0DDE9022304B07047F6
:100608002DE9F0478C460D460446089E002B51D133
:100618008A4217466DD9B2FA82FEBEF1000F0BD09E
:10062800CEF1200C01FA0EF520FA0CFC02FA0EF7B6
:100638004CEA050C00FA0EF44FEA174A250CBCFBED
:10064800FAF81FFA87F90AFB18CC45EA0C4508FBAB
:1006580009F3AB420AD9ED1908F1FF3280F0238182
:10066800AB4240F22081A8F102083D44ED1AA4B241
:10067800B5FBFAF00AFB105544EA054400FB09F9FA
:10068800A14509D9E41900F1FF3380F00A81A14599
:1006980040F2078102383C44A4EB090440EA0840D0
:1006A8000021002E61D024FA0EF400233460736018
:1006B800BDE8F0878B4207D9002E54D0002186E888
:1006C80021000846BDE8F087B3FA83F1002940F01D
:1006D8008E80AB4202D3824200F2FA80841A65EB24
:1006E80003050120AC46002E3FD086E81010BDE877
:1006F800F08712B90127B7FBF2F7B7FA87FEBEF108
:10070800000F34D1EB1B3A0C1FFA87FC0121B3FB15
:10071800F2F8250C02FB183345EA03450CFB08F3F5
:10072800AB4207D9ED1908F1FF3002D2AB4200F213
:10073800D1808046ED1AA3B2B5FBF2F002FB10554A
:1007480043EA05440CFB00FCA44507D9E41900F171
:10075800FF3302D2A44500F2B8801846A4EB0C047B
:1007680040EA08409DE731463046BDE8F087CEF1C3
:10077800200405FA0EF307FA0EF720FA04F83A0CEB
:1007880025FA04F448EA0308B4FBF2F14FEA1845E5
:1007980002FB11441FFA87FC45EA044501FB0CF3F0
:1007A800AB4200FA0EF409D9ED1901F1FF3080F0DF
:1007B8008A80AB4240F2878002393D44EB1A1FFA27
:1007C80088F5B3FBF2F002FB103345EA034500FB62
:1007D8000CF3AB4207D9ED1900F1FF386FD2AB42E9
:1007E8006DD902383D44EB1A40EA01418FE7C1F167
:1007F800200722FA07F88B4005FA01F448EA0303B8
:1008080020FA07FE4FEA134CFD404EEA040EB5FBF2
:10081800FCF94FEA1E440CFB19551FFA83F844EA09
:10082800054509FB08F4AC4202FA01F200FA01FAA4
:1008380008D9ED1809F1FF3043D2AC4241D9A9F1EA
:1008480002091D442D1B1FFA8EFEB5FBFCF00CFBA4
:1008580010554EEA054400FB08F8A04507D9E418EE
:1008680000F1FF3529D2A04527D902381C4440EAB7
:100878000940A4EB0804A0FB02894C45C6464D4636
:1008880015D312D056B1BAEB0E0364EB050404FA83
:1008980007F7CB401F43CC40376074600021BDE8A8
:1008A800F0871846F8E69046E0E6C245EAD2B8EB8B
:1008B800020E69EB03050138E4E72846D7E740460E
:1008C80091E78146BEE7014678E702383C4445E7B0
:1008D800084608E7A8F102083D442BE7704700BF27
:1008E800104B30B5DA6C104C42F00202DA64DB6C63
:1008F80087B003F002030093009B01234FF4804567
:100908000293039301A9022320460493019500F062
:1009180059FA20460022294600F0C0FB002007B003
:1009280030BD00BF001002400004004808B54FF475
:100938008041024800F0B7FB002008BD00040048D1
:100948001F4B30B5DA6C42F00402DA64DB6C87B016
:1009580003F004030093009B4FF400530193022318
:100968000546039304930C4631B90291154801A931
:1009780000F028FA204610E0134C144B114802935B
:1009880001A904EBC50400F01DFA1149204600F046
:10099800FBF9014618B16FF0030007B030BD2046DF
:1009A8000C4A00F0EBF904460028F4D102460F2166
:1009B800282000F0EBF8282000F01CF9DAE700BF47
:1009C8000010024000080048040000200000111038
:1009D8000D000016F909000808B54FF40051034846
:1009E80000F056FBB0FA80F0400908BD0008004846
:1009F80008B5002003F0C6FA08BD00000A4A4FF403
:100A0800E13C08B50C2180E8041000228260C26035
:100A1800026141618261C2610262426202F045F88C
:100A2800003018BF012008BD0038014010B501286A
:100A380088B031D81A491B4A51F82010C301D4187C
:100A4800D150194B19481A6E42F480421A661A6E30
:100A580002F480420192019ADA6C42F00202DA64EE
:100A6800DB6C03F002030293029BC023039302236F
:100A78000493002305930323069303A907230793ED
:100A880000F0A0F92046FFF7B9FF00280CBF0020AE
:100A98006FF0030008B010BD6FF00100FAE700BF67
:100AA80000000020C4090020001002400004004893
:100AB80038B50F4B0546186808B9012038BD0D4AEE
:100AC8004FF47A73B3FBF0F31068B0FBF3F000F067
:100AD8009FF804460028F0D10F2DEED8024629468B
:100AE8004FF0FF3000F052F8034B20461D6038BD30
:100AF8000C000020180000201000002010B5032072
:100B080000F032F80020FFF7D3FF044618B904F0CC
:100B1800FFF8204610BD0124FBE70000034A044902
:100B2800136809680B441360704700BF440A00202B
:100B38000C000020014B1868704700BF440A0020D1
:100B480038B50446FFF7F6FF631C1CBF054B1B684E
:100B5800054618BFE418FFF7EDFF401B8442FAD89A
:100B680038BD00BF0C000020074AD36823F4E063B7
:100B78001B041B0C43F0BF63000243F4003300F472
:100B8800E0600343D360704700ED00E0174B30B5D9
:100B9800DC68C4F30224C4F10703251D042B28BF15
:100BA8000423062D4FF0010505FA03F303F1FF3383
:100BB8008CBF033C00241940A14005FA04F4013C11
:100BC8002240002842EA01024FEA0212ADBF00F1BA
:100BD800604000F00F00064B00F56140B5BFD2B28F
:100BE800D2B21A5480F8002330BD00BF00ED00E0F7
:100BF80014ED00E0002808DB4209012300F01F0083
:100C080003FA00F0014B43F82200704700E100E0CE
:100C18000138B0F1807F0AD2064B074A5860F021AC
:100C280082F823100020072298601A60704701207C
:100C3800704700BF10E000E000ED00E0144B984260
:100C480017D02033984216D02033984215D020333D
:100C5800984214D02033984213D02033984212D0AF
:100C68002033984211D0203398420CBF072000202F
:100C7800704700207047012070470220704703200A
:100C8800704704207047052070470620704700BF52
:100C98000060014038B50446002867D00068344D2C
:100CA800FFF7CCFF55F82030002B5FD1204604F029
:100CB80047F8304B1A6801321A601B68012B19D1AA
:100CC8002D4B1A6822F080421A601A68A1680A43FC
:100CD8001A601A6822F47F021A602279012A05D163
:100CE800E1681A68013942EA01421A601A6842F05A
:100CF80000421A6020686169036823F47143036045
:100D0800236902680B43A1690B431343036003681B
:100D1800216A23F00F030360E36902680B4313435E
:100D280003608368616AA26A23F45F03836083684F
:100D3800013A0B4343EA024383604368226B03F0A2
:100D480007034360436843EAC203E26A43EA0223B3
:100D58004360036843F080030360012384F8343060
:100D6800FFF76CFF45F82040002038BD012038BD52
:100D78003C0500205C0500200060014011B942607C
:100D8800084670470120704710B101600020704785
:100D9800012070470368012203F01F01C3F30043D9
:100DA8008A405B01064910B45C58224205D05A506B
:100DB800436813B15DF8044B18475DF8044B70475E
:100DC800140401402DE9F04F85B00B68DFF8A881C5
:100DD800674C01930023019ADA4002D105B0BDE8BF
:100DE800F08F0126019A9E4012EA060E00F0B180AB
:100DF8004A6822F01007022F16D14FEAD30900EBF8
:100E0800890903F0070AD9F820504FEA8A0A4FF0F7
:100E18000F0C0CFA0AFC25EA0C0C0D6905FA0AF508
:100E280045EA0C05C9F820504FEA430C0325D0F8D1
:100E380000B005FA0CF5ED4302F0030A0BEA050BC6
:100E48000AFA0CF9013F49EA0B09012FC0F8009092
:100E580011D8876805EA0709CF6807FA0CF747EA47
:100E680009078760476827EA0609C2F300179F4009
:100E780047EA09074760BAF1030F07D1C76A27EAAB
:100E88000606C2F3C0079F403E43C662C6683540A7
:100E98008E6806FA0CF63543C560D50059D5D8F8E2
:100EA800605045F00105C8F86050D8F8605023F04C
:100EB800030606F1804605F0010506F58036039520
:100EC80003F0030C039DB5684FEA8C0C0F2707FA53
:100ED8000CF7B0F1904F25EA07073CD0254DA84202
:100EE8003BD005F58065A84239D005F58065A84254
:100EF80037D005F58065A84235D005F58065A8424C
:100F080033D005F58065A84214BF0725062505FAE4
:100F18000CF53D43B56025686FEA0E06D70354BF4C
:100F280035404EEA050525606568970354BF35408E
:100F38004EEA05056560A568D70254BF35404EEAFC
:100F48000505A560E568920254BF35404EEA0505DF
:100F5800E56001333FE70025D9E70125D7E70225FA
:100F6800D5E70325D3E70425D1E70525CFE700BF5B
:100F78000004014000040048001002402DE9F04F31
:100F8800404CDFF808B100234FF0010A4FF00F087A
:100F980031FA03F201D1BDE8F08F0AFA03F511EA3C
:100FA800050660D023F0030707F1804707F580376F
:100FB80003F0030EBA684FEA8E0E08FA0EF9B0F184
:100FC800904F02EA090C50D02F4A90424FD002F5B8
:100FD800806290424DD002F5806290424BD002F57B
:100FE8008062904249D002F58062904247D05845CD
:100FF8000CBF0622072202FA0EF2944510D122688D
:10100800F64332402260626832406260A268324031
:10101800A260E2681640E660BA6822EA0902BA608D
:10102800066803275A0007FA02F223FA07F716435D
:1010380000EB8707066003F00706D7F820E0B60044
:1010480008FA06F62EEA06063E628668D24316407D
:1010580086604668ED432E404660C6683240C260EE
:10106800C26A1540C562013392E70022C3E7012234
:10107800C1E70222BFE70322BDE70422BBE705223E
:10108800B9E700BF00040140000400480018004808
:101098000369194214BF0120002070470AB1816119
:1010A80070478162704743690B4214BF8162816156
:1010B8007047704708B5044B5969014202D058611E
:1010C800FFF7F7FF08BD00BF0004014010B5044654
:1010D80000284AD090F8413003F0FF021BB980F88D
:1010E800402003F05FFE242384F841302368E16840
:1010F8001A6822F001021A60626822F070621A61AE
:101108009A68012922F400429A60A26824D142F424
:1011180000429A605A68616942F0007242F40042E3
:101128005A60DA6822F40042DA6022690A43A16947
:1011380042EA0122DA60216AE2690A431A601A68FF
:1011480042F001021A6000202023606484F84130D4
:10115800206384F8420010BD42F4044202299A60D8
:1011680004BF4FF400625A60D4E7012010BD90F824
:101178004120D2B2202A10B51DD190F84030012B61
:1011880019D0242380F8413003681C6824F0010436
:101198001C601C6824F480541C601C68214319607E
:1011A800196841F001011960002380F8412080F896
:1011B8004030184610BD022010BD10B590F84140CF
:1011C800E4B2202C1CD190F84030012B18D02423F5
:1011D80080F8413003681A6822F001021A601A6820
:1011E80022F4706242EA012119601A6842F0010291
:1011F8001A60002380F8414080F84030184610BD3E
:10120800022010BDF0B504468BB060B390F8BD3332
:10121800056803F0FF021BB980F8BC2303F062FEE7
:10122800032384F8BD33EB6B254613F4807355F81C
:10123800100B08BF236101F0B6FC0FCD6E460FC638
:101248000FCD0FC695E8030086E803002546271D45
:1012580097E80E0055F8100B01F06EFC064620B119
:10126800022384F8BD33012556E00146206801F0C9
:10127800A0FC3046D4F804E01C264FF0010C0146CF
:10128800C2B2964500F101001CD800231C2619465D
:10129800D8B2864503F1010322D80FCD6E460FC69A
:1012A8000FCD0FC695E8030086E8030097E80E0007
:1012B800206801F0BFFC0123054600B3022284F830
:1012C800BD23D0E706FB024383F83DC083F83C20EA
:1012D800A3F8422083F83F10596499641965CFE751
:1012E80006FB004282F8FD1182F8FC0182F8FF112A
:1012F800C2F80412C2F80812C2F81012C8E784F83B
:10130800380084F8BD33636A012B02D1204600F00F
:1013180006F8206801F036FD28460BB0F0BD0268DB
:1013280003460121C0F8FC13002083F8F4039369F5
:1013380043F000639361536D43F0805343F003031C
:1013480053657047024A136843F48073136070470B
:1013580000700040024B186800F4C060704700BF7E
:1013680000700040174B1A68B0F5007F02F4C062A5
:101378001CD1B2F5007F15D01A6822F4C06242F47D
:1013880000721A60104A116832224A430F49B2FBB0
:10139800F1F2194601325869400500D522B94B6966
:1013A8005B050DD400207047013AF4E7B2F5806F71
:1013B8001FBF1A6822F4C06242F480621A60F1E723
:1013C80003207047007000401800002040420F00C2
:1013D800024A536843F480635360704700700040CA
:1013E8002DE9F041069D04460F46164698462168A9
:1013F8008A683A4214BF01220022B24202D1002078
:10140800BDE8F0816B1CF3D0FFF794FBA0EB08005C
:10141800854201D3002DEAD1042384F83930E36BE7
:1014280043F00103E3630120BDE8F08137B50446CA
:10143800FFF780FB0546002C49D094F83830012B83
:1014480047D0012384F8383094F8392002F0FF039C
:101458003AB984F83830204603F0DAFC41F2883390
:1014680023642068A1680268236C013922F4706241
:1014780042EA012202602021009300222B462046E6
:10148800FFF7AEFFF0B9226865681168E36821F0DC
:101498007F4143EA056321F010010B431360A16902
:1014A800636955680B43216943EA01430A492940A6
:1014B8000B435360136843F0010313600123E06397
:1014C80084F83930002384F8383003B030BD012067
:1014D800FBE70220F9E700BFFEF8E0FF37B51E4D35
:1014E800AB6DDA00044618D5FFF734FFB0F5007F7E
:1014F80023D1802C29D9A02C8CBF02200120174A87
:10150800136823F0070303431360136803F007030A
:10151800181A18BF012003B030BDAB6D43F08053DB
:10152800AB65AB6D03F080530193019BFFF712FF8E
:10153800AB6D23F08053AB65D8E7802C07D808D073
:10154800A4F1700358425841D9E70020D7E7032097
:10155800D5E70220D3E700BF001002400020024078
:10156800224B9A68D96812F00C0205D00C2A15D1C2
:1015780001F00301012918D119681D48090755BF51
:10158800D3F894101968C1F30321C1F3031150F87B
:1015980021004AB30C2A09D000207047042A22D01F
:1015A800082A144818BF002070470020DA6802F0A3
:1015B8000302022A15D00F49032A08BF0846DA6831
:1015C800D968DB68C3F34163C1F30621C2F3021291
:1015D8000133484301325B00B0FBF2F0B0FBF3F09B
:1015E80070470548EBE70448704700BF0010024009
:1015F800E458000800127A000024F4002DE9F743AB
:10160800054608B9012047E0A64C0368A668E768C4
:10161800DB0606F00C0607F0030773D51EB10C2E87
:1016280052D1012F50D12368980702D5AB69002BFE
:10163800E8D02368286A190756BFD4F8943023687D
:101648001B0903F0F003834229D2FFF747FF002864
:10165800D8D1236843F00803236023682A6A23F05B
:10166800F003134323606368EA6923F47F4343EA82
:1016780002236360FFF774FFA3688B4AC3F3031365
:10168800D35C03F01F03D840884B1860884B186858
:10169800FFF70EFA002835D003B0BDE8F0832368C1
:1016A80043F008032360236823F0F0030343236017
:1016B8006368EA6923F47F4343EA02236360FFF720
:1016C8000DFF0028D6D09DE7AB69002B36D02368E4
:1016D80043F001032360FFF72DFA804623689A0739
:1016E80024D5236843F00803236023682A6A23F07B
:1016F800F003134323606368EA6923F47F4343EAF2
:10170800022363602B68D80729D42B68990767D40C
:101718002B68180700F19C802B68590700F1CA80D4
:10172800A86A002840F033810020B5E7FFF702FAE5
:10173800A0EB08000228D1D90320ADE7236823F0E5
:1017480001032360FFF7F6F9804623689B07D9D584
:10175800FFF7F0F9A0EB08000228F6D9ECE7082E0D
:1017680003D00C2E08D1032F06D123689A03CCD5B9
:101778006B68002BC9D145E76B68B3F5803F10D182
:10178800236843F480332360FFF7D4F98046236845
:101798009B03BAD4FFF7CEF9A0EB08006428F6D96A
:1017A800CAE7B3F5A02F04D1236843F4802323604C
:1017B800E6E7226822F480322260226822F480223E
:1017C8002260002BE0D1FFF7B5F980462368980323
:1017D8009BD5FFF7AFF9A0EB08006428F6D9ABE773
:1017E800042E03D00C2E10D1022F0ED123685905D8
:1017F80003D5EB68002B3FF405AF63682A6923F033
:10180800F85343EA0263636082E7EB687BB12368BD
:1018180043F480732360FFF78DF9074623685A0560
:10182800EBD4FFF787F9C01B0228F7D984E72368B0
:1018380023F480732360FFF77DF9074623685B056F
:101848007FF566AFFFF776F9C01B0228F6D973E774
:101858006B699BB1D4F8943043F00103C4F8943019
:10186800FFF768F90746D4F894309A073FF554AF64
:10187800FFF760F9C01B0228F5D95DE7D4F894306A
:1018880023F00103C4F89430FFF754F90746D4F85D
:1018980094309B077FF540AFFFF74CF9C01B022837
:1018A800F5D949E700100240C9580008180000207F
:1018B80010000020A36DD80029D4A36D43F08053F5
:1018C800A365A36D03F080530193019B4FF00108BA
:1018D800794F3B68D9051DD5AB68012B2BD1D4F8BE
:1018E800903043F00103C4F89030FFF723F941F238
:1018F80088390746D4F890309B0742D5B8F1000FD5
:101908003FF40EAFA36D23F08053A36508E74FF0B3
:101918000008DDE73B6843F480733B60FFF70AF992
:1019280081463B68DA05D7D4FFF704F9A0EB090034
:101938000228F6D900E7052B06D1D4F8903043F0F9
:101948000403C4F89030CAE7D4F8902022F00102CA
:10195800C4F89020D4F8902022F00402C4F8902013
:10196800002BC2D1FFF7E6F841F288390746D4F8D0
:1019780090309807C2D5FFF7DDF8C01B4845F6D967
:10198800DAE6FFF7D7F8C01B4845B3D9D4E60C2EE2
:101998005CD02368022823F0807323603BD1FFF7D3
:1019A800C9F80646236899012FD4E268434B1340CF
:1019B800EA6A13436A6B43EA02232A6B013A43EA51
:1019C8000213AA6B120943EA4243EA6B5208013A2E
:1019D80043EA42532A6C5208013A43EA4263E360FD
:1019E800236843F080732360E36843F08073E36007
:1019F800FFF7A0F8054623689A013FF595AEFFF773
:101A080099F8401B0228F6D996E6FFF793F8801B51
:101A18000228C7D990E6236813F0205F02BFE36865
:101A280023F00303E360E36823F0887323F480332F
:101A3800E360FFF77FF8054623689B017FF574AEE6
:101A4800FFF778F8401B0228F6D975E601283FF41D
:101A580023AEE368EA6A03F0030191427FF4D2AD52
:101A6800296B03F070020139B2EB011F7FF4CAAD94
:101A7800696B03F4FE42B2EB012F7FF4C3ADAA6B8E
:101A8800073A03F4003118BF012291427FF4BAAD3E
:101A9800EA6B520803F4C001013AB1EB425F7FF4EC
:101AA800B1AD2A6C5208013A03F0C063B3EB426F40
:101AB80014BF01200020EFE5007000408C809DF9E4
:101AC8002DE9F0410E46044610B90120BDE8F08129
:101AD800414A136803F007038B422AD32368D907C6
:101AE80032D421688A075CD43B4A136803F00703A1
:101AF8009E425ED311F0040F384D65D10B0706D511
:101B0800AB68226923F4605343EAC203AB60FFF772
:101B180027FDAB68324AC3F30313BDE8F041D35C39
:101B280003F01F03D8402F4B18602F4B1868FEF79F
:101B3800BFBF136823F007030B431360136803F058
:101B480007039942C1D1C9E76268244D032A2B686B
:101B58001BD113F0007FB8D0AB6823F00303134305
:101B6800AB60FEF7E7FF41F288380746AB6862686A
:101B780003F00C03B3EB820FB3D0FEF7DBFFC01BFF
:101B88004045F3D90320BDE8F081022A02D113F4BD
:101B9800003FE0E712B913F0020FDCE713F4806F9F
:101BA800D9E70E4AA068936823F0F00303439360D3
:101BB8009AE7136823F0070333431360136803F0AD
:101BC80007039E4281D195E7AB68E26823F4E0639E
:101BD8001343AB6092E700BF0020024000100240B0
:101BE800C95800081800002010000020054B064ABC
:101BF8009B68C3F30223D35C044A106803F01F03F5
:101C0800D840704700100240D9580008180000203A
:101C1800054B064A9B68C3F3C223D35C044A106889
:101C280003F01F03D840704700100240D95800083D
:101C380018000020F8B5454BDA6812F0030F054686
:101C48000E461C4600682AD0DA6802F00302824277
:101C58003CD1002A3AD0DB686A68C3F30213013327
:101C6800934233D1236823F080632360FEF762FF39
:101C7800074623681A0132D4AF68002E36D0012EE9
:101C880050D12269286922F4C002400822F4FE4299
:101C9800013842EA072242EA4052226132E0022831
:101CA80010D0032814D0012810D11B689F0738D5FD
:101CB800E3686A6823F07303013A184340EA0210A4
:101CC800E060CFE71B6813F4806FF1D10120F8BD05
:101CD8001A689103ECD41B6813F4802FF5E7FEF71C
:101CE80029FFC01B0228C4D90320F8BD2169EB686D
:101CF80021F41F3121F4407141EA07211B0941EA0F
:101D080043412161236843F080632360FEF712FF9B
:101D1800064623681B0113D52369AA691343236167
:101D28000020F8BD2369686923F0C063400823F4E4
:101D3800FE43013843EA072343EA40632361E1E7AE
:101D4800FEF7F8FE801B0228E3D9CDE70010024019
:101D5800F8B53D4BDA6812F0030F05460E461C46EF
:101D6800006828D0DA6802F0030282423AD1002AD9
:101D780038D0DB686A68C3F302130133934231D168
:101D8800236823F080532360FEF7D4FE07462368B8
:101D98009A0030D4A868002E34D06369296923F0EA
:101DA800C063490823F4FE43013943EA002343EAA8
:101DB8004163636132E0022810D0032814D001285F
:101DC80010D11B689F0738D5E3686A6823F073034E
:101DD800013A184340EA0210E060D1E71B6813F4A7
:101DE800806FF1D10120F8BD1A689103ECD41B680B
:101DF80013F4802FF5E7FEF79DFEC01B0228C6D915
:101E08000320F8BD6269EB6822F41F3222F44072A5
:101E180042EA00221B0942EA43426261236843F016
:101E280080532360FEF786FE064623689B0005D58F
:101E380063696A69134363610020F8BDFEF77AFE9F
:101E4800801B0228F1D9DBE7001002402DE9F34797
:101E5800066816F40066044624D0416EB1F5800F7A
:101E68002CD002D8C1B101261CE0B1F5000F0DD06D
:101E7800B1F5400FF7D14D4A616ED2F8883023F49E
:101E880040030B43C2F8883000260BE0474AD3686A
:101E980043F48033D360EEE70430FFF7CBFE064609
:101EA8000028E8D02368D80406D5A16EB1F1807F58
:101EB80074D008D8A9B10126354621E00021203088
:101EC800FFF746FFEBE7B1F1007F04D0B1F1407FA7
:101ED800F1D1354609E0354AD36843F48033D360FD
:101EE800F7E7201DFFF7A6FE0546002D5CD12F4A17
:101EF800A16ED2F8883023F040730B43C2F88830C3
:101F08002368990340F14F81284FBB6DDA0040F1F7
:101F180076814FF00008DFF89890D9F8003043F444
:101F28008073C9F80030FEF705FE8246D9F8003004
:101F3800DB053FD5002D44D1D7F8903013F440731A
:101F480015D0D4F88420934211D0D7F89030D7F820
:101F5800902042F48032C7F89020D7F8902023F4DC
:101F6800407322F48032C7F89020C7F89030D80721
:101F780009D5FEF7DFFD41F288390546D7F89030DC
:101F8800990740F10981D7F89030D4F8842023F4D8
:101F980040731343C7F89030354612E0002104F12E
:101FA8002000FFF7D5FE9FE72E46A9E70010024064
:101FB80000700040FEF7BEFDA0EB0A000228B5D96C
:101FC8000325B8F1000F03D0BB6D23F08053BB6528
:101FD8002368DA0708D59049A06BD1F8882022F049
:101FE80003020243C1F888209F0708D58A49E06B9D
:101FF800D1F8882022F00C020243C1F888205E073D
:1020080008D58549206CD1F8882022F03002024397
:10201800C1F88820180708D57F49606CD1F8882056
:1020280022F0C0020243C1F88820D90608D57A49AF
:10203800A06CD1F8882022F440720243C1F88820AD
:102048009A0608D57449E06CD1F8882022F44062D9
:102058000243C1F888209F0508D56F49E06DD1F883
:10206800882022F440220243C1F888205E0508D562
:102078006949206ED1F8882022F440120243C1F841
:102088008820580608D56449206DD1F8882022F4A4
:1020980040520243C1F88820190608D55E49606D90
:1020A800D1F8882022F440420243C1F88820DA059A
:1020B80008D55949A06DD1F8882022F4403202434E
:1020C800C1F888209B040FD5534AE16ED2F88830B6
:1020D80023F040630B43B1F1006FC2F8883064D13C
:1020E800D36843F48013D36023681F030FD54A4A8B
:1020F800216FD2F8883023F040630B43B1F1006FB1
:10210800C2F888305CD1D36843F48013D360236865
:102118005E030FD5404A616FD2F8883023F04063E0
:102128000B43B1F1006FC2F8883054D1D36843F43F
:102138008013D3602368580412D53749A26FD1F8A9
:10214800883023F040531343B2F1805FC1F88830E0
:102158004CD10221201DFFF76DFD002818BF054650
:102168002268110408D52C49E06FD1F8883023F093
:1021780080430343C1F88830D30309D5264AD4F8ED
:102188008010D2F8883023F000430B43C2F888301F
:10219800284602B0BDE8F087FEF7CCFC401B484556
:1021A8007FF6ECAE0CE7354612E7B1F1806F9BD1B4
:1021B8000121201DFFF73EFD002818BF054693E7C3
:1021C800B1F1806FA3D10121201DFFF733FD002855
:1021D80018BF05469BE7B1F1806FABD10121201DE7
:1021E800FFF728FD002818BF0546A3E7B2F1005FF6
:1021F800B6D1022104F12000FFF7AAFDADE7BB6DBF
:1022080043F08053BB65BB6D03F080530193019B82
:102218004FF001087FE600BF00100240024A136831
:1022280043F00403136070470010024003685A68C3
:1022380022F0E0025A604268B2F5827F0AD18268D1
:10224800B2F5004F02D0B2F5806F03D11A6822F0C0
:1022580040021A60826AB2F5005F07D11A6822F458
:1022680000521A601A6842F400521A60012380F87A
:102278005D30002380F85C300320704770B5044659
:102288000D4616462368986810F0800000D170BD8E
:102298006A1CF8D0FEF74EFC801B8542F2D8204617
:1022A800BDE87040FFF7C2BFF8B505460C461646B4
:1022B8001F4629688868204000D1F8BDB4F5C06F72
:1022C80008BF0B7B731CF5D0FEF734FCC01B86429D
:1022D800EFD82846BDE8F840FFF7A8BF70B5134609
:1022E8000D4616460A464FF4C0510446FFF7DCFF78
:1022F80028B1236E43F02003236603200FE0324603
:1023080029462046FFF7BAFF0028F2D133462A466D
:102318004FF4C0612046FFF7C7FF0028E9D170BD20
:10232800704770B5044600284AD00023836290F8AD
:102338005D3003F0FF021BB980F85C20FFF7F0FF67
:102348000223216884F85D300B68E26823F04003BB
:10235800B2F5E06F0B604FF000032ED91846B2F5C6
:10236800706F18BFA362236B2BB9B2F5E06F8CBFF7
:10237800022301232363A6686368A569334326699A
:10238800334366693343E6693343266A3343A66AAF
:10239800334305F4007633430B60636A1A43636B77
:1023A8002D0C1A4305F004052A430243012300209B
:1023B8004A60206684F85D3070BD4FF48050D0E7E5
:1023C800012070BD2DE9F8431E4690F85C30089F47
:1023D800012B04460D46914600F01581012380F833
:1023E8005C30FEF7A7FB94F85D306168DBB2012B27
:1023F80080460AD0B1F5827F40F00381A0680028AA
:1024080040F0FF80042B40F0FC80002D49D0B9F14A
:10241800000F46D0002E44D094F85D30E268206862
:10242800C4F84090042B1CBF052384F85D300023BA
:102438002366B2F5E06FA4F84660E687E364236597
:10244800A4F84460A563A687436801D8012E2AD959
:1024580023F48053436003685B065EBF036843F060
:1024680040030360B2F5E06F56D909B1012E07D1D8
:1024780035F8023BC360E38FA563013B9BB2E3875A
:102488000125E38F9BB28BB9B4F846309BB26BB988
:10249800424639462046FFF721FF002834D0202342
:1024A8002366012030E043F48053D3E72268936821
:1024B80099070DD5E38F9BB253B14DB1A36B33F898
:1024C800021BD160A363E38F013B9BB2E387002526
:1024D8009368DB070FD5B4F846309BB25BB1236C29
:1024E800D26823F8022B2364B4F84630013B9BB230
:1024F800A4F846300125FEF71DFBA0EB0800874233
:10250800BFD87E1CBDD00320012384F85D30002392
:1025180084F85C30BDE8F88309B1012E0BD1E38F54
:102528009BB2012B51D935F8023BC360E38FA563F9
:10253800023B9BB2E3870125E38F9BB223B9B4F832
:1025480046309BB2002BA3D022689368980711D518
:10255800E38F9BB273B16DB1E38F9BB2012BA36B79
:102568003BD933F8021BD160A363E38F023B9BB2D4
:10257800E387002522689368D9071DD5B4F846304B
:102588009BB2CBB1B4F846309BB2012B236C2CD94B
:10259800D16823F8021B2364B4F84630023B9BB28F
:1025A800A4F84630B4F846309BB2012B03D85368E0
:1025B80043F4805353600125FEF7BCFAA0EB0800F2
:1025C8008742B9D87B1CB7D09DE72B780373A36BE0
:1025D8000133A363E38F013BABE71B781373A36B52
:1025E8000133A363E38F013BC1E7127B1A70236CAD
:1025F80001332364B4F84630013B9BB2A4F846305B
:10260800D9E7022080E70220BDE8F88390F85D0052
:10261800704700000268C169F8B50446836800691C
:102628001568034360690343BA480B4328400343D2
:1026380013605368E06823F4405303435360B64B78
:10264800A0699A421CBF236A1843936823F4306335
:1026580003439360B14B9A4219D103F55843B04AEA
:10266800D3F8883003F00303B1F5004FD35C40F092
:102678003881082B00F28F80DFE813F01A01CA00B6
:10268800F9008D0014018D008D008D003600A54BDA
:102698009A4207D103F5E633A34AD3F8883003F00A
:1026A8000C03E1E7A14B9A4223D103F5E433D3F8B5
:1026B800883003F03003102B00F0F1800BD8002B8A
:1026C80000F0F380B1F5004F4FF001024FF0000326
:1026D80000F0F880A8E0202B00F0C680302BF1D164
:1026E800B1F5004F40F0B8806068430803F58033C7
:1026F800C3E08F4B9A421ED103F5E233D3F88830FA
:1027080003F0C003402B00F0BB800AD87BB9824B92
:102718009A4240F0CA80FFF769FA0023B0BB02462C
:102728003AE0802B00F09D80C02B00F0B0807A4BFF
:102738009A42C7D12FE07F4B9A4211D103F5E0337B
:10274800D3F8883003F44073B3F5807F00F09880A5
:10275800DCD9B3F5007F00F08480B3F5407FE4E76F
:102768006D4B9A42AED103F5C833D3F8883003F4E1
:102778004063B3F5806F00F08380C7D9B3F5006F6D
:102788006FD0B3F5406FD0E76B480223626802EB65
:102798004201814205D9012200232366636610465F
:1027A800F8BDB0EB023FF6D8082B2ED8DFE803F0CF
:1027B800052D1C2D242D2D2D2700FFF717FA6268F3
:1027C8004FF4807156080027E1FB0067002330466C
:1027D8003946FDF7FDFE0022584BA0F5407199429D
:1027E800D9D82368D860D7E7554855080023002171
:1027F800401941F10001ECE7FEF7B2FEDFE75008AF
:102808000021002310F50000F3E701220020E3E790
:10281800FFF7FEF94EE0FFF7E9F9626800EB5203B3
:10282800B3FBF2F39BB20022A3F110004FF6EF7155
:102838008842B0D82168CB60AEE7FFF7E9F9ECE74A
:102848006068430803F5740303F51053B3FBF0F312
:10285800E8E7FEF785FEE0E76068430803F5004314
:10286800F4E72D4B9A428FD0B1F5004FE8D160685C
:10287800430803F1F47303F59043B3FBF0F31FE04F
:10288800254B9A420BD1FEF76BFE042346E7224BF9
:102898009A427FF425AF4FF40040082376E7B1F55C
:1028A800004FD6D1FEF75CFE04E0B1F5004FB2D17F
:1028B800FFF79CF961684A0802EB4003B3FBF1F3A8
:1028C8009BB20022A3F110004FF6EF7188423FF649
:1028D80062AF23F00F012068C3F342030B43C360C8
:1028E8005AE7082B3FF657AF01A252F823F000BF72
:1028F8001F28000843280008492800089F270008C7
:102908005B2800089F2700089F2700089F270008CA
:1029180061280008F369FFEF00800040003801409B
:10292800B058000800440040B4580008004800406F
:10293800004C0040005000400024F400FFFC0F0051
:10294800000024F4436ADA0710B506D50168846AE2
:102958004A6822F4003222434A609C0706D501687F
:10296800C46A4A6822F4803222434A60590706D56D
:102978000168046B4A6822F4802222434A601A07DD
:1029880006D50168446B4A6822F4004222434A6033
:10299800DC0606D50168846B8A6822F480522243DB
:1029A8008A60990606D50168C46B8A6822F40052C9
:1029B80022438A605A060FD50168046C4A6822F4DB
:1029C80080122243B4F5801F4A6005D14A68446CDE
:1029D80022F4C00222434A601B0606D50268816CB5
:1029E800536823F400230B43536010BD2DE9F041D5
:1029F800069D04460F46164698462168CA6937EA76
:102A080002030CBF01220022B24202D00020BDE81E
:102A1800F0816B1CF2D0FEF78DF8A0EB0800854220
:102A280001D3002DE9D123681A6822F4D0721A6004
:102A38009A6822F001029A6020236367A367002343
:102A480084F870300320BDE8F08173B50446002691
:102A5800C667FEF76FF823681B681A07054615D482
:102A680023681B685B070AD56FF07E43009300223A
:102A78002B464FF480012046FFF7B8FF90B920237A
:102A88000020636784F87000A3670CE06FF07E4352
:102A98000093324603464FF400112046FFF7A6FF85
:102AA8000028DDD0032002B070BD10B5044640B345
:102AB800436F1BB980F8703002F0E0F922682423D4
:102AC8006367136823F0010313602046FFF7A2FD34
:102AD800012816D0636A13B12046FFF733FF236835
:102AE8005A6822F490425A609A6822F02A029A6040
:102AF8001A6842F0010220461A60BDE81040FFF74C
:102B0800A4BF012010BD00000A4B013B01D10320E6
:102B180070470269002AF8DA0369064A43F001039C
:102B28000361013AF3D0036913F00103F9D11846A0
:102B3800704700BF410D030084B038B505AD85E886
:102B48000E000A9B012B044619D1836B23F48033B2
:102B58008363C36823F4840323F04003C360C3681A
:102B680023F44013C360119B012B02BFC36843F4D5
:102B78008013C360BDE8384004B0FFF7C5BFC36821
:102B880043F04003C360FFF7BFFF0E9B3BB9A36B45
:102B980043F48033A363BDE8384004B07047A36BA7
:102BA80023F48033F6E7836823F001038360002071
:102BB800704708B5C368012923F0C043C36008D132
:102BC800C36843F00053C3603220FDF7B9FF00200B
:102BD80008BD19B9C36843F08043F4E7012008BD74
:102BE800890141F02001064A0161013A05D00369D3
:102BF80013F02003F9D1184670470320704700BF2F
:102C0800410D03001023064A0361013A05D0036908
:102C180013F01003F9D1184670470320704700BF1E
:102C2800410D0300D0F800381943C0F800180020FF
:102C38007047000084B02DE9F843044609A880E8ED
:102C48000E000023139E0F46194603F1400204EBC1
:102C5800820201330F2B5160F7D1A36B002E62D192
:102C680023F40013A363236843F04003236023681D
:102C780043F0800323600023C4F8003ED4F80038F2
:102C8800C4F8003803212046FFF7CCFF1021204666
:102C9800FFF7A6FF0146204604F50065FFF7B2FFDF
:102CA800002844D1081C18BF012000232B6104F51B
:102CB80010626B611946EB614FF0904E4FF0006C5B
:102CC8004FF67F38BB4234D1002104F530620F46FD
:102CD8004FF0904E4FF0006C4FF67F388B423BD14F
:102CE8002B6923F480732B610023A3616FF0804369
:102CF8006361A36943F01003A361A269204B1343E6
:102D0800A3610F9B1BB1A36943F00803A361012EC4
:102D180001BFA36943F0804343F00403A361BDE806
:102D2800F84304B0704743F40013A363A3E70120FA
:102D3800BBE7D2F80090B9F1000F0BDA3BB9C2F843
:102D480000C011610133C2F808802032BAE7C2F826
:102D580000E0F6E71160F4E7D2F80090B9F1000F4F
:102D68000BDA39B9C2F800C017610131C2F808801E
:102D78002032B3E7C2F800E0F6E71760F4E700BFD7
:102D880000383C8008B5D0F8043843F00203C0F896
:102D980004380320FDF7D4FE002008BD70B58AB0C2
:102DA80000248DF804008DF805108DF806202146C2
:102DB800182204A81E460294CDF80B4002F0B3F97D
:102DC8003F23ADF810308A23ADF8123001AB0693DB
:102DD8000323079302AD0723214604A80895099306
:102DE80000F094FBA04215DB9DF8080080B9029A18
:102DF8009DF80B30C2F30F2232809DF80C2043EA75
:102E080002230E9A1380039B0F9AC3F30F23138098
:102E18000AB070BDFF20FBE72DE9F0418AB000241D
:102E28008DF80400884616462146182204A81D4637
:102E38000294CDF80B4002F076F93F23ADF810303C
:102E48008A23ADF8123001AB06930123079302AF32
:102E58000723214604A80897099300F057FBA042CE
:102E680015DB9DF8080078B9029A9DF80C30C2F37A
:102E78000F22A8F800209DF80B2042EA0322328096
:102E8800039AC2F30F222A800AB0BDE8F081FF201E
:102E9800FAE770B592B09DF85C509DF864402E1921
:102EA8001A2E4FDC8DF82000ADF82110ADF8232044
:102EB8008DF825302A469DF8583018998DF8263017
:102EC8000AA88DF8275002F023F905F1080312AA81
:102ED80052FA83F3093508AEEDB203F8284C2246BE
:102EE8001A9970192C4402F013F9E4B212AB234476
:102EF800BDF86C2023F8282CA31C12AA52FA83F3DD
:102F0800BDF8702023F8282C0021182202A802F00E
:102F18000AF93F23ADF808308323ADF80A300434AA
:102F28000DF107030693E4B20123002102A80496D9
:102F38000594079300F0EAFA002805DB9DF80700DE
:102F480012B070BD4220FBE7FF20F9E710B58EB044
:102F58008DF81C008DF81D1002F110000DF11E01F6
:102F680052F8044B41F8044B8242F9D18DF82E30C7
:102F78009DF840308DF82F309DF844308DF8303072
:102F8800129BCDF8313018229DF84C308DF8353031
:102F9800002101A802F0C7F83F23ADF804308623CA
:102FA800ADF8063007AB03931A2304930DF103031E
:102FB80005930021012301A8069300F0A7FA002831
:102FC800ACBF9DF80300FF200EB010BD30B51F2820
:102FD80091B0044625D810AD024605F8200D0DF134
:102FE800210002F095F81822002102A802F09BF8AF
:102FF8003F23ADF808308E23ADF80A3001340DF1C7
:1030080007030693E4B20123002102A8049505945E
:10301800079300F07BFA002805DB9DF8070011B044
:1030280030BD4220FBE7FF20F9E700B589B0182240
:10303800002102A802F077F83F23ADF8083040F2EB
:103048000113ADF80A300DF107030693002101239F
:1030580002A8079300F05AFA0028ACBF9DF80700B1
:10306800FF2009B05DF804FBF0B58DB001280CAE67
:103078000CBF0224102406F82C0D17460DF105008C
:1030880022461D4602F044F80CAB234403F82B7C7F
:103098000CAB1A19033402F82A5C002518222946B9
:1030A8000DEB0200ADF800508DF8025002F03BF82D
:1030B8003F23ADF818304FF48173ADF81A30294624
:1030C800032306A808960994CDF828D00B9300F09E
:1030D8001DFAA84209DB9DF8000020B9009B129A4E
:1030E800C3F30F2313800DB0F0BDFF20FBE770B5CD
:1030F80001298EB00CBF022410241646ADF81C001E
:1031080022468DF81E100DF11F0031461D4601F0B4
:10311800FFFF0EAB1A19134602F8195C9DF84820F8
:1031280003F8182C0EAB23449DF84C2003F8172CF9
:103138000EAB23449DF8502003F8162C0EAB234405
:103148009DF8542003F8152C0EAB234400259DF858
:10315800582003F8142C2946182201A8ADF800506D
:103168008DF8025001F0DFFF3F23ADF804304FF433
:103178008273ADF8063007AB03930934032329465D
:1031880001A80494CDF814D0069300F0BFF9A84222
:1031980009DB9DF8000020B9009B179AC3F30F23A1
:1031A80013800EB070BDFF20FBE710B57A2BA8B0D6
:1031B8001C462DDCADF82000ADF822108DF8242037
:1031C8002A998DF825301A460DF1260001F0A0FF46
:1031D8001822002102A801F0A6FF3F23ADF808300D
:1031E8004FF48373ADF80A3008AB049306340DF13D
:1031F80007030693E4B20123002102A8059407936C
:1032080000F084F9002805DB9DF8070028B010BD00
:103218004220FBE7FF20F9E700B589B01822ADF896
:103228000400002102A801F07EFF3F23ADF808301A
:1032380040F22713ADF80A3001AB0493022305933B
:103248000DF1030306930021012302A8079300F060
:103258005DF90028ACBF9DF80300FF2009B05DF8B8
:1032680004FB10B50C467E2CA8B0114627DC22467C
:103278008DF820000DF122008DF8214001F048FF63
:103288001822002102A801F04EFF3F23ADF80830B4
:103298000C23ADF80A3008AB049302340DF1070390
:1032A8000693E4B20123002102A80594079300F0D5
:1032B8002DF9002805DB9DF8070028B010BD422035
:1032C800FBE7FF20F9E700B589B018228DF8040064
:1032D8008DF8051002A8002101F025FF3F23ADF865
:1032E80008300F23ADF80A3001AB0493022305938D
:1032F8000DF1030306930021012302A8079300F0B0
:1033080005F90028ACBF9DF80300FF2009B05DF85F
:1033180004FB30B585B00DF10E03009305460C464D
:1033280003AB0DF109020DF10A0102A800F02FF814
:10333800C0B268B9BDF80A10BDF80E200B0A2B7090
:1033480002F00F0343EA012302F0F0021343238043
:1033580005B030BD00B589B01822002102A801F0DF
:10336800E2FE0323ADF80830ADF80A300DF107038B
:1033780006930021012302A8079300F0C7F800284C
:10338800ACBF9DF80700FF2009B05DF804FB2DE9EC
:10339800F04300248BB08146884617462146182200
:1033A80004A81E46019402948DF80C4001F0BBFE5F
:1033B8000423ADF810300123ADF8123001AD092314
:1033C800214604A80895099300F0A0F8A0421CDB48
:1033D8009DF80400B0B99DF8053089F80030BDF8B3
:1033E8000630A8F800309DF808303B70029A9DF826
:1033F8000B30C2F30F2232809DF80C2043EA0223DF
:10340800129A13800BB0BDE8F083FF20FAE7F0B5FD
:1034180091B008AD202406460F46224600212846D2
:1034280001F081FE1F2E3246394628BF1F220DF1BA
:1034380021008DF8206001F06BFE1822002102A8FF
:1034480001F071FE0823ADF808300923ADF80A3001
:103458000DF1070306930021012302A804950594A2
:10346800079300F053F80028ACBF9DF80700FF2031
:1034780011B0F0BD37B5084D0446204600F059F9A3
:1034880008B103B030BD01A9204600F091F90199B7
:10349800284600F058F9F0E7500A002070B508B146
:1034A8000F4BD86101F032F90E480F4E0D4D00F068
:1034B8003DF90E4800F03AF90024311928468C34B9
:1034C80000F04DF9B4F52F7FF7D1054C22680AB109
:1034D80000209047A36813B1BDE87040184770BD3D
:1034E80060050020480A002080050020500A0020BE
:1034F800054B02681A60C268DA6002691A6182695B
:103508009A6182689A607047600500202DE9F0434F
:10351800A5B04688B0F80080594FDFF86C910023B9
:10352800044602A80D46019300F000F9384600F061
:1035380051F9012853DD63882288277BA1688DF81B
:103548001370C3F3090343EA822301228DF8102084
:1035580005A83A46ADF8113001F0DAFD494B1B6970
:1035680013B1391D04A89847002D78D1C6F3090571
:1035780045EA8825444E424FADB2FDF7DBFA804656
:10358800FDF7D8FAA0EB0800B0F57A7F4AD83046A4
:1035980000F0CFF80028F3D101A9304600F0F6F882
:1035A80001990B7A042B09D1487A91F888300F28B1
:1035B800A3F103022CD01BD80E2852D0384600F0B5
:1035C800B8F8002858D0304600F0B3F8002853D097
:1035D8000199384600F0C3F800230193CDE704A908
:1035E800484600F0D3F80499384600F0B8F89DE74B
:1035F800102817D03E28E1D1C87A62689042DDD100
:103608001A1F63699A4228BF1A4662610C311CE08E
:10361800B1F80D30AB4205D163680F2B0FD0CB7AD0
:10362800002BCBD0019911B1154800F08CF802A8F5
:10363800FFF720FF4FF0FF3025B0BDE8F083636946
:103648009A4228BF1A4662610B31206901F060FD79
:103658000B48019900F077F802A8FFF70BFF00204C
:10366800EAE78A89AA42DDD19A1F63699A4228BF8C
:103678001A4662610E31E8E7019902A8AAE700BF7D
:10368800480A002060050020500A002073B5002376
:103698000B4C0C4D0C4E0193204600F04AF808B133
:1036A80002B070BD01A9204600F070F8EB6913B1B3
:1036B8000198083098470199304600F050F8EBE738
:1036C800500A002060050020480A002037B5002372
:1036D8001348019300F02DF8D8B901A9104800F05B
:1036E80055F8104BDB6893B1019880210830984752
:1036F800C5B2019985B10B7A81F88850042B0BD19A
:103708008B7AE81E834207D1074800F028F800208A
:1037180000E0012003B030BD014800F014F8F6E7DE
:10372800480A002060050020500A00200060406020
:103738007047EFF3108272B603681B1A584258415B
:1037480082F310887047EFF3108372B602680A603C
:10375800486001600A68516083F310887047EFF38E
:10376800108372B642684A60086041604A68116016
:1037780083F310887047EFF3108272B690E80A005E
:10378800196001684B6082F31088704738B50C46A1
:10379800EFF3108572B603680B600068FFF7EBFF64
:1037A8002268002313602268536085F3108838BDAF
:1037B80038B50C46EFF3108572B643680B60406865
:1037C800FFF7D9FF2268002313602268536085F34E
:1037D800108838BDEFF3108172B602680023824268
:1037E80003D181F310881846704701331268F6E751
:1037F80030B5012189B00020FDF7A2F80020FDF7BF
:103808006FF80020FDF712F90020FDF7E5F8374BB7
:10381800C0B2187000213648FFF740FE0DF11E01B6
:103828000DF11700FFF775FDFFF794FD6420FDF714
:1038380087F99DF81740BDF81E50302C82BF2D4BDC
:1038480001221A70FDF776F92C44204401F074FC2B
:10385800294D002401F098FC28550134052CF9D194
:10386800D0236B71244A06210020FFF7FAFCFFF7EA
:10387800DCFB204B1878012807AB0DF11A0213D195
:103888008DE80C00002106AB0722FFF787FA1B4BD7
:1038980000930022BDF81A10BDF818000723FFF79F
:1038A80084FC024628B1FEE706A90120FFF7B4FA16
:1038B800EDE7134B02930124102301900093014676
:1038C800039407232046FFF741FB00B1FEE700F011
:1038D800DDFB00B1FEE700F07BFC00B1FEE7042150
:1038E8002046FFF7F0FC09B030BD00BF14000020EF
:1038F800CD4C00083C080020580A0020C158000898
:1039080040E201002DE9F74FD64C23781BB101F0B6
:1039180059F9002323700020FDF708F8D24B1B68E3
:10392800002B00F0FD81FDF705F901F005FC01F021
:103938002BFC044601F028FC052605466FF00042E2
:10394800002384FB0601FCF743FEFCF7BBFD0022C5
:10395800C64BFCF73BFCFCF7EBFD07EE100AF2EE5A
:10396800047A67EE277A5020FDEEE77A6FF000427E
:10397800002385FB0001CDED007AFCF729FEFCF75A
:10398800A1FDBB4BBDF90040BA4D0022FCF71EFC5F
:10399800FCF7CEFDDFEDB87A07EE100A67EE277A5E
:1039A8002146FDEEE77A4FF0030817EE900A00F083
:1039B800FFFCB24B1C68132C00F2B78101F0E4FB4A
:1039C800A4FB08894FEAE07B00FB09F308FB0B33F3
:1039D800A0FB08016FF0004219440023FCF7F8FD32
:1039E8002B680A3003442B6001F0CEFBA4FB06676A
:1039F8004FEAE07B00FB07F306FB0B33A0FB060155
:103A080019446FF000420023FCF7E2FD6B686FF089
:103A18000902101A03446B6001F0B6FB0723A4FBEC
:103A28000323CDE90023019B009A4FEAE07B43433F
:103A380002FB0B33A0FB020119446FF00042002384
:103A4800FCF7C6FDAB68DFF840B20A300344AB6050
:103A580001F09AFB22194FEAE0714FF000035B4135
:103A6800514300FB0313A2FB000119446FF000420D
:103A78000023FCF7ADFDDBF8003064300344CBF8DD
:103A8800003001F081FBA50F4FEA840AC21700FB42
:103A980005F30AFB0233A0FB0A0119446FF0004248
:103AA8000023FCF795FDDBF804306FF06302101A71
:103AB8000344CBF8043001F067FB86460620A4FBDC
:103AC80000237046C11751430EFB0313A2FB0E01DE
:103AD80019446FF000420023FCF77AFDDBF8083048
:103AE800674C64300344CBF8083001F04DFBC21733
:103AF80000FB09F308FB0233A0FB08016FF000424A
:103B080019440023FCF764FD236803300344236051
:103B180001F03AFBC31745430AFB0355A0FB0A0112
:103B28006FF0004200232944FCF752FD63686FF0F0
:103B38000202101A0344636001F026FB4FEAE07B9F
:103B480000FB07F306FB0B33A0FB06016FF00042F6
:103B580019440023FCF73CFDA36803300344A36029
:103B680001F012FB00FB09F34FEAE07B08FB0B3383
:103B7800A0FB08016FF0004219440023FCF728FD60
:103B8800404C236864301B1A236001F0FDFA00FBE7
:103B980007F34FEAE07906FB0933A0FB06016FF053
:103BA800004219440023FCF713FD636864300344A2
:103BB800636001F0E9FA019B009AC717434302FBCF
:103BC8000733A0FB020119446FF000420023FCF701
:103BD800FFFCA36864301B1AA360264C284A2A49B4
:103BE800204600F057FB274800F0B0FB234A136833
:103BF8000133282B1360204640F08E800023136089
:103C080023684FF4FA6193FBF1F201FB1232002AA8
:103C180040F09C815B42036043684FF4FA6193FB78
:103C2800F1F201FB1232002A40F092815B424360BC
:103C380083684FF4FA6193FBF1F201FB1232002A18
:103C480040F089815B42104A836013684FF4FA6040
:103C580093FBF0F100FB1131002940F07E815B42BB
:103C680014E000BF150000204C09002000003B4074
:103C780000408F407C0900200000C8424008002016
:103C8800600900207009002054090020546813605E
:103C98004FF4FA6094FBF0F100FB1141002940F069
:103CA8005E816442906854604FF4FA6190FBF1F5CC
:103CB80001FB1505002D40F055814042906093FBB3
:103CC800F1F201FB1231AC4A002940F04D81136832
:103CD8005B424FF4FA61136094FBF1F301FB134468
:103CE800002C40F0438153685B424FF4FA61536003
:103CF80090FBF1F301FB1300002840F03A81936830
:103D08005B4293609D4B1A6852421A605A6852424D
:103D18005A609A6852429A604FF47A70FCF710FF22
:103D280003B0BDE8F04FFFF7B1BC01F02DFAA4FBDA
:103D380008AB4FEAE07900FB0BF30AFB0933A0FB61
:103D48000A016FF0004219440023FCF741FC6FF0B0
:103D580009082B68B8EB000003442B6001F014FA43
:103D6800A4FB0623CDE90023019B009AC717434310
:103D780002FB0733A0FB020119446FF00042002345
:103D8800FCF726FC6B680A3003446B6001F0FCF911
:103D98000726A4FB0667C21700FB07F306FB0233DE
:103DA800A0FB06016FF0004219440023FCF710FC49
:103DB800AB68B8EB00001844A86001F0E5F92219D7
:103DC8004FEAE0794FF0000302FB09F15B4100FB89
:103DD8000313A2FB000119446FF000420023684D51
:103DE800FCF7F6FB6FF063082B68B8EB00000344A0
:103DF8002B6001F0C9F94FEA840EC2170EFB02F2DC
:103E0800A30F00FB0323AEFB00016FF0004219442F
:103E18000023FCF7DDFB6B68643003446B6001F042
:103E2800B3F986460620A4FB00237046C117514308
:103E38000EFB0313A2FB0E0119446FF0004200238E
:103E4800FCF7C6FBAB68B8EB00001844A86001F0AB
:103E58009BF94FEAE07900FB07F306FB0933A0FB67
:103E680006016FF0004219440023FCF7B1FB424DF4
:103E78006FF002082B68B8EB000003442B6001F0D8
:103E880083F986460920A4FB00237046C1175143D5
:103E98000EFB0313A2FB0E0119446FF0004200232E
:103EA800FCF796FB6B68033003446B6001F06CF918
:103EB800C41700FB0BF30AFB0433A0FB0A016FF0E5
:103EC800004219440023FCF783FBAB682B4CB8EB8A
:103ED80000001844A86001F057F900FB07F34FEA07
:103EE800E07906FB0933A0FB06016FF00042194494
:103EF8000023FCF76DFB2368C8300344236001F0FE
:103F080043F9C71700FB0BF30AFB0733A0FB0A01B1
:103F18006FF0004219440023FCF75AFB636896309F
:103F28001B1A636001F030F9019B009AC7174343DD
:103F380002FB0733A0FB020119446FF00042002383
:103F4800FCF746FBA3680A30034445E60A2362E609
:103F58006FF009036BE60A2375E6642396E66FF0B3
:103F680063049FE66420A9E60323B2E66FF0020328
:103F7800BBE60323C5E600BF6009002070090020E6
:103F880054090020014B01221A7070474408002090
:103F980007B54FF48053009313460A460146054877
:103FA800FEF710FA002814BF6FF00500002003B0D8
:103FB8005DF804FB600A0020FCF7BCBD0F4A4FF413
:103FC800E06108B54FF4827CC1604FF4007180E86D
:103FD8000410816100221821826002614261C1617E
:103FE800026207214262826202630822C16242635E
:103FF800FEF797F9003018BF012008BD003C0040CB
:1040080010B51D4A1D4C1E4B23601368591C88B0FF
:10401800116013B1002008B010BD2046FEF7F6FA73
:104028000028F7D1174B9A6D42F400429A659A6DB1
:1040380002F400420192019ADA6C42F00402DA6456
:10404800DB6C059003F004030293029B0E484FF4C7
:10405800E0530393022304930323069303A906233F
:104068000793FCF7AFFE2046FFF7A8FF0028D1D042
:104078006FF00700CFE700BF48080020600A002063
:10408800003C004000100240000800482DE9F04FB5
:104098004A496FF05A03B422CB708A71002387B063
:1040A8009A224B71CA71CB720B734B738B73CB73A0
:1040B80002256FF01E020126414B0A724FF01B0ABF
:1040C8004FF0C5094FF0D5084FF0110B81F800A04B
:1040D80081F8019081F802800D7181F809B08E7223
:1040E8003246009328461023FEF7BEFF034618B158
:1040F800472007B0BDE8F08F324C6FF05A02E270EB
:104108004FF03602A2716FF05302E2716FF01E0297
:1041180022724FF01402A273294A6071E072207370
:104128006073E0731088284A05920493042201936F
:104138001027122302920093039708232246294648
:1041480084F800A084F8019084F80280257184F82E
:1041580009B0A672FEF7CBFF03460028C8D16FF05E
:104168005A02E2704FF03602A2716FF05302E27108
:104178006FF01E022272E022A273114A6071E0728F
:1041880020736073E0731088104A05920422049328
:10419800029201930397009714232246294684F834
:1041A80000A084F8019084F80280257184F809B091
:1041B800A672FEF79CFF00289AD19AE7DE0A002033
:1041C800DA0A0020C80A0020C40A0020DC0A0020FD
:1041D8002DE9F04F2B492C4D87B0B422002302243F
:1041E8008A714FF01B0B9A224FF0C50A4FF0D50980
:1041F8004FF0A508E12711264B71CA71CB720B73DA
:104208004B738B73CB7381F800B081F801A081F8F0
:10421800029081F803800C710F724E728C72042325
:10422800009501222046FEF71FFF034628BB174AC8
:1042380036219171AC21D1710121917251731449C8
:104248005071D07210739073D07382F800B02888C0
:1042580082F801A082F8029082F803801471177224
:1042680056720425059110218DE82A0004930391C4
:1042780008232146FEF73BFF00B1472007B0BDE801
:10428800F08F00BFDE0A0020D80A0020C80A0020EC
:10429800C60A002070B588B00D4614460646FCF7DD
:1042A80049FCC0088DF80C00FCF744FC73685B42BD
:1042B8008DF80E301B128DF80F3033688DF81030E2
:1042C8001B128DF81130B3685B428DF812301B1247
:1042D8008DF813306B688DF814301B128DF815307B
:1042E8002B688DF816301B128DF81730AB688DF8D7
:1042F80018301B128DF8193063688DF81A301B12AC
:104308008DF81B3023688DF81C301B128DF81D307A
:10431800A3688DF81E301B128DF81F30094B1988C1
:10432800094BC00A8DF80D00188803AB00930022D2
:104338001423FEF73AFF002814BF4720002008B0D6
:1043480070BD00BFDC0A0020DA0A00201FB5044651
:10435800FCF7F0FBC0088DF80800FCF7EBFB2368BE
:104368008DF80A301B128DF80B3063688DF80C300D
:104378001B128DF80D30A3688DF80E301B128DF8C6
:104388000F30094B1988094BC00A8DF809001888A5
:1043980002AB009300220823FEF707FF002814BF92
:1043A8004720002004B010BDC60A0020D80A00200B
:1043B80030B585B004460D46FCF7BCFBC0088DF847
:1043C8000800FCF7B7FB23128DF80B3023148DF887
:1043D8000C300E4B8DF80A4019880D4B8DF80E5095
:1043E800C00A8DF80900188802AB009324162D1214
:1043F800082300228DF80D408DF80F50FEF7D5FEEA
:10440800002814BF4720002005B030BDC40A002092
:10441800DA0A00202D4B1B880133984237B50DD19D
:104428002B4A2C492C48FFF735FF2C4B18880028BD
:1044380049D003B0BDE83040FEF7EEBE284B1B88DC
:1044480001339842F1D100F09FFE044600F09CFE33
:10445800054605206FF00042002384FB0001FCF7AD
:10446800B7F8FCF72FF800221E4BFBF7AFFEFCF75E
:104478005FF807EE100AF2EE047A67EE277A6420F6
:10448800FDEEE77A6FF00042002385FB0001CDEDD9
:10449800017AFCF79DF8FCF715F80022124BBDF9DC
:1044A8000440FBF793FEFCF743F8DFED107A07EEC4
:1044B800100A67EE277A2146FDEEE77A17EE900A92
:1044C800FFF776FFB1E703B030BD00BFDC0A00207C
:1044D80060090020540900207C09002050090020B0
:1044E800C40A002000003B4000408F400000C84242
:1044F800174B1848DA6C30B542F00102DA64DB6C0D
:1045080087B003F001030093009B4023002401932C
:1045180001A9114B029301250394FCF753FC4FF4B6
:10452800807301A94FF0904001930295039404947D
:10453800FCF748FC4FF4005301A908480193029581
:1045480003940494FCF73EFCFFF75AFD07B030BD16
:10455800001002400010004800001110000C004834
:1045680008B540210748FCF709FD4FF400510648FB
:10457800FCF704FD4FF480714FF09040FCF7FEFC0F
:10458800002008BD00100048000C004808B50022B3
:104598004FF480714FF09040FCF780FD0520FCF748
:1045A800CFFA01224FF480714FF09040FCF776FD6E
:1045B8000520FCF7C5FA002008BD0000F0B587B05B
:1045C8000024FF238DF8063022460B2307460E46AB
:1045D8001E488DF808304FF400518DF809408DF8C9
:1045E8000A408DF80B408DF80C40FCF757FD05226A
:1045F80004A902A8FFF7CCFC9DF81030022B22D1A9
:104608009DF814509DF8133053EA052507D0AE42A3
:1046180028BF2E46E5B2B54204F1010408D30122B1
:104628004FF400510948FCF739FD284607B0F0BDA2
:1046380001220DF107010DF10600FFF7A9FC9DF815
:1046480007307B55E6E72546E9E700BF000C004840
:104658002DE9F04385B00A238DF800300023804609
:104668000D468DF801308DF802308DF803308DF845
:104678000430FCF75FFA1B4EDFF86C900746002207
:104688004FF400513046FCF709FD052202A968469F
:10469800FFF77EFC9DF80830022B1AD19DF80930EF
:1046A800AB4219D32A4649464046FFF771FC00241D
:1046B80001224FF400513046FCF7F0FCFCF73AFABF
:1046C800C01B0F280BD8002CD9D1204605B0BDE857
:1046D800F0834FF0FF34EBE76FF00104E8E76FF089
:1046E8000204F2E7000C00484C08002010B5064C04
:1046F80040212046FCF7CCFC012804D10020FEF71D
:10470800E5FF0028F4D010BD0010004810B588B0AF
:10471800114B0193114B0293114B0593114B0493C9
:10472800114C124B039301A8114B0793FEF7E0FEBF
:1047380010492046FCF728FB0F4A00212046FCF7C9
:104748001DFB002211461720FCF720FA1720FCF762
:1047580051FA08B010BD00BFF944000869450008C7
:1047680059460008C5450008F00A0020954500088C
:10477800C13F000806000016F5460008F0B5B9B0BC
:1047880014244422002105A800F0CDFC2246002173
:10479800684600F0C8FC0021882216A800F0C3FC77
:1047A800FCF7D0FD224AD2F8903023F01803C2F863
:1047B800903060230125022605940D9300242823B8
:1047C800072705A8129307950B950C940F9610953B
:1047D8001195139714961596FCF710FF0F220421D4
:1047E800032368468DE80C00029403940494FDF7B3
:1047F80067F9104B16934FF0806331931823199380
:1048080016A84FF480131D93249426942B94369461
:10481800179518951A971B961C96FDF717FB4FF4DA
:104828000070FCF79FFDFDF7F9FC39B0F0BD00BF43
:10483800001002408520010080B58AB0FCF75EF9BF
:10484800FFF79CFF142200210DEB020000F06BFC27
:10485800B14BB248DA6CDFF8EC8242F01002DA644D
:10486800DA6C02F010020092009ADA6C42F004024C
:10487800DA64DA6C02F004020192019ADA6C42F00E
:104888000102DA64DA6C02F001020292029ADA6C2E
:1048980042F00202DA64DA6C02F002020392039A2E
:1048A800DA6C42F00802DA64DB6C03F00803049364
:1048B80000224FF48A71049BFCF7F0FB002248F2B7
:1048C80004114FF09040FCF7E9FB00224FF214016D
:1048D8009348FCF7E3FB002241F281019148FCF781
:1048E800DDFB01224FF400518E48FCF7D7FB002274
:1048F8004FF410718C48FCF7D1FB01222021884825
:10490800FCF7CCFB0122114684480024FCF7C6FBC7
:10491800012540F2151305A98048059306950794CB
:104928000894FCF74FFA6A2305A97C480593CDF84B
:1049380018800794FCF746FA4FF40053059305A92D
:104948007A4B794806934FF00B090794FCF73AFA2B
:104958003F2305A974480593022703264FF0080A48
:10496800CDF818900794FCF72DFA05A94FF0904060
:1049780005960896CDF824A006970794FCF722FA26
:1049880048F2041305A94FF0904005930695079443
:104998000894FCF717FA05A94FF09040CDF814A039
:1049A8000995069707940894FCF70CFA102305A9B3
:1049B8004FF0904005934FF0050ACDF818900794F2
:1049C800FCF700FAE02305A94FF0904005930896FC
:1049D80006970794CDF824A0FCF7F4F905A95048E8
:1049E8000595CDF818800794FCF7ECF905A94C4813
:1049F8000597CDF818900794FCF7E4F94FF23403C3
:104A080005A947480593069507940894FCF7DAF931
:104A18004CF6044305A943480593CDF8188007943C
:104A2800FCF7D0F943F2810305A93E4805930695A2
:104A380007940894FCF7C6F94FF4107305A93A488F
:104A48000593069507940894FCF7BCF94FF4C073D6
:104A580005A935480593CDF818800794FCF7B2F9F5
:104A680005A930480896059706970794CDF824A01D
:104A7800FCF7A8F97823059305A907232948089680
:104A8800099306970794FCF79DF94FF44073059333
:104A980008961223042605A9214806930795099626
:104AA800FCF790F9224621461720FCF76FF81720EB
:104AB800FCF7A0F8214622462820FCF767F82820B2
:104AC800FCF798F81A481B4B036006624FF4807392
:104AD800194E0571836185628460C7600461446111
:104AE800C4614462C4620463FCF7D4F8134A144BEB
:104AF800F560304686E80C00B46034617461B461D6
:104B0800F4613462FCF7E2FA21463046FCF72FFBE9
:104B18002146304618E000BF00100240001000484F
:104B280000040048000C004800080048000021105C
:104B3800F80A002020600140B80F0020005800400B
:104B4800EC9C901000001110FCF737FB184819492D
:104B58008560FF2380E80A000561C46044618461C0
:104B6800FCF764FC1448154B84604FF4E13580E889
:104B780028000C234361C46004618461C461046239
:104B88004462FDF792FF0E484FF0A043062680E8E6
:104B98004800C7608761C461046244628462046338
:104BA800C462FCF72FFBFEF723FEFEF7ABFEFCE723
:104BB80004100020001000A0300B00200048004026
:104BC800B00B002070B5354A92B0106851680A22BF
:104BD8008DF82D2009228DF8302042228DF83120C1
:104BE8006C228DF8322075228DF8332065228DF8DD
:104BF800342047228DF835204B228DF83620552257
:104C08008DF837200D228DF8382009ABFF2203C319
:104C18008DF839200223224A8DF82C308DF83B304C
:104C2800F4238DF83D3013788DF8403053788DF8A3
:104C3800413093788DF8423000240125D3788DF8DF
:104C48002E4008268DF82F608DF83A508DF83C409C
:104C58008DF83F408DF8433013798DF84430214664
:104C680053798DF8453020468DF83E50FEF7CFFB3E
:104C780009AB02934FF4F0622B4606940594049412
:104C880003948DE850004FF4C8612046FEF701F9FF
:104C98000BA91A20FEF79AF912B070BDA85800089F
:104CA800580A0020044A00231360044A01211170A5
:104CB800034A1370704700BF4C09002015000020FC
:104CC8006C0900200378042B1CD143783E2B05D0B7
:104CD800FF2B0DD0052B15D1FFF7E4BFC378012BAF
:104CE80010D10949B0F805200B60084B1A807047AD
:104CF800B0F8032040F614439A4203D1B0F80700F5
:104D0800FFF788BB704700BF4C09002050090020FE
:104D18000A4B1A6E42F001021A661A6E82B002F04D
:104D280001020092009A9A6D42F080529A659B6D3A
:104D380003F080530193019B02B0704700100240BA
:104D480000B589B01422002103A800F0ECF9134B38
:104D58001B6803BB03F1804303F5043303A91A6EF0
:104D68000F4842F080721A661A6E02F08072019241
:104D7800019ADA6C42F01002DA64DB6C03F010037B
:104D88000293029B4FF42073039302230493062398
:104D98000793FCF717F809B05DF804FB88090020B1
:104DA8000010004810B5044688B01422002103A85A
:104DB80000F0B9F92268134B9A4221D1124C1348DA
:104DC800E36C43F00203E364E36C03F00203019332
:104DD800019B4FF44063039312230493012305932B
:104DE8000323069303A904230793FBF7EBFFA36DA3
:104DF80043F48003A365A36D03F480030293029B2D
:104E080008B010BD005800400010024000040048DF
:104E180010B5044688B01422002103A800F083F9D5
:104E28002268144B9A4222D103F1204303F5003340
:104E380003A91A6D104842F480721A651A6D02F4BB
:104E480080720192019ADA6C42F01002DA64DB6C2B
:104E580003F010030293029B4FF47C430393022355
:104E68000493032306930A230793FBF7ABFF08B0C9
:104E780010BD00BF001000A00010004810B5044687
:104E880088B01422002103A800F04DF92268134BC2
:104E98009A4220D103F5E43303A99A6D104842F4ED
:104EA80080229A659A6D02F480220192019ADA6C46
:104EB80042F00802DA64DB6C03F008030293029BF9
:104EC8004FF44073039302230493032306930723A9
:104ED8000793FBF777FF08B010BD00BF00480040FC
:104EE800000C004810B5044688B01422002103A81D
:104EF80000F019F92368B3F1A04F3CD1204CE36CC2
:104F080043F00103E364E36C03F001030093009BA7
:104F180003A94FF400734FF090400393FBF752FF3F
:104F28004FF4E053039302230493002305930323D0
:104F3800069303A90A234FF090400793FBF742FF1B
:104F4800E36C43F48053E364E36C03F4805301930C
:104F5800019BA36DDB0010D4A36D43F08053A365C0
:104F6800A36D03F080530293029BFCF731FAA36D03
:104F780023F08053A36508B010BDFCF729FAFAE7BF
:104F8800001002407047FEE7FEE7FEE7FEE77047C5
:104F980070477047FBF7C2BD08B52020FCF78AF8B8
:104FA8000548FBF7F7FE8020FCF784F84FF4807083
:104FB800BDE80840FCF77EB8F00A002008B54FF4B9
:104FC8008060FCF777F84FF40060FCF773F8064848
:104FD800FBF7E0FE4FF48040FCF76CF84FF400401C
:104FE800BDE80840FCF766B80400002008B50A4B85
:104FF8001968024609B909491960186869460244DE
:105008008A4206D900F05AF80C2303604FF0FF30AB
:1050180008BD1A6008BD00BF8C0900205810002088
:105028000F49D1F8883043F47003C1F888300D4B2C
:105038001A68002042F001021A6098601A6822F08B
:10504800A85222F410221A604FF48052DA601A68CB
:1050580022F480221A6098614FF000638B607047D9
:1050680000ED00E000100240DFF834D0002103E03A
:105078000C4B5B58435004310B480C4B42189A4276
:10508800F6D30B4A02E0002342F8043B094B9A424C
:10509800F9D3FFF7C5FF00F017F8FFF7CDFBFEE7E0
:1050A800008001202459000800000020200500206D
:1050B8002005002058100020FEE70000014B18686A
:1050C800704700BF1C00002070B50D4E0D4CA41B8E
:1050D800A4100025A54209D10B4E0C4C00F0D4FBBE
:1050E800A41BA4100025A54205D170BD56F8253093
:1050F80098470135EEE756F8253098470135F2E72D
:105108001C5900081C5900081C590008205900089F
:1051180010B5431E0A44914200D110BD11F8014B4D
:1051280003F8014FF7E702440346934200D1704762
:1051380003F8011BF9E7000038B5124B1C68A36B94
:105148000546D3B9182000F059F843F20E33A0638E
:1051580003804AF6CD33438041F2342383804EF2F4
:105168006D63C3804DF6EC630381052343810B23F4
:10517800838101220023C0E90423A36B00221D615F
:105188005A6138BD1C000020194B10B51C68A36B70
:10519800D3B9182000F032F843F20E33A06303802D
:1051A8004AF6CD33438041F2342383804EF26D6357
:1051B800C3804DF6EC630381052343810B23838170
:1051C80001220023C0E90423A16B0A480A694B693C
:1051D800094C504304FB0300A2FB0423013203449F
:1051E80043F10003C1E9042323F0004010BD00BFD0
:1051F8001C0000202DF451582D7F954C024B014680
:10520800186800F003B800BF1C0000202DE9F74F14
:1052180001F10B04162C814607D934F0070405D593
:105228000C23C9F80030002631E110248C42F7D352
:10523800484600F0F9F9B4F5FC7F9C4D36D204F1EC
:1052480008022A44A2F1080156688E424FEAD403A4
:1052580002D1D668B24210D07368F268B16823F000
:105268000303CA60334491605A6842F001025A60ED
:10527800484600F0DFF9083609E102338C4A2E6906
:10528800964211466DD0706820F00300071B0F2F5F
:1052980047DD331944F0010474606B612B61DA60F7
:1052A8009A6047F001025A603750E1E7630A2AD052
:1052B800042B12D8A30938335A1C05EBC202A2F1F9
:1052C80008005668864206D0726822F00302111B55
:1052D8000F291CDD013B0133D0E7142B01D85B33C8
:1052E800EAE7542B02D8230B6E33E5E7B3F5AA7F20
:1052F80002D8E30B7733DFE740F25452934204D8E5
:10530800A30C7C33D8E73F23D6E77E23D4E70029D4
:10531800F16804DBB368D9608B60B318A4E70E4664
:10532800D0E7002F6A612A6105DB3044436843F007
:10533800010343609CE7B0F5007F44D2C0088710A2
:10534800012202FA07F76A6801303A436A6005EBFE
:10535800C00255F83070B760083AF26045F830601E
:10536800FE6001209A1000FA02F26868824200F298
:10537800A180024206D123F003035200024203F146
:105388000403FAD005EBC30CE0469E46D8F80C603F
:10539800464553D10EF1010E1EF0030F08F108081F
:1053A800F4D1980779D16B6823EA02036B606868C7
:1053B800520082427ED8002A7CD073460242E1D154
:1053C80004335200FAE7420A042A15D8820938320F
:1053D800571C05EBC20E55F83770BE4526D1012083
:1053E800921000FA02F2686810436860C6F80CE090
:1053F800B760CEF80860B3E7142A01D85B32E7E754
:10540800542A02D8020B6E32E2E7B2F5AA7F02D81C
:10541800C20B7732DCE740F25457BA429ABF820C8B
:105428007C327E22D4E7BF68BE4504D07A6822F079
:1054380003029042F7D3D7F80CE0D7E77068F76813
:1054480020F00300A0EB040ABAF10F0F10DDB268D8
:10545800331944F001047460D760BA604AF001025D
:105468006B612B61D96099605A6046F800A0FFE62D
:10547800BAF1000F0FDB3044436843F00103436087
:1054880056F8083F4846DF60BB6000F0D3F8304666
:1054980003B0BDE8F08F3E467AE75CF8080984451A
:1054A80003F1FF333FF47DAF81E700BF1001002017
:1054B80018010020D5F808B0DBF8046026F00306D0
:1054C800B44203D8331B0F2B00F396804F4A17685A
:1054D8004F4A1168103701310BEB0603274405D0FA
:1054E8004C4901390F44013149420F403946484679
:1054F8000192009300F0A4F8B0F1FF3F804656D027
:10550800009B019A834201D9AB4550D142480168BA
:10551800434507EB010EC0F800E04049824613D12D
:105528000B4211D1AB683E4446F001065E603C4A2E
:10553800DAF8003011688B4288BF1360394A116865
:105548008B4288BF136032E0106801301BBFA8EBA4
:1055580003037344C2F80080CAF8003018F007004B
:105568001CBFC0F1080080442A4B474418440F4030
:10557800C71B3946484600F063F8431C08BF40463D
:10558800DAF80030C5F8088008BF0027A0EB08004B
:105598003B44074447F00107AB45CAF80030C8F858
:1055A8000470C4D00F2E10D80123C8F80430AB689B
:1055B8005A6822F003029442A2EB040301D80F2B8D
:1055C8001ADC484600F036F82DE6DBF804300C3ECD
:1055D80026F0070603F001033343CBF804300BEB46
:1055E800060305220F2E5A609A60A0D90BF1080114
:1055F800484600F08BF89AE7AE6844F0010234445C
:1056080043F001037260AC60636031E6C0090020BA
:105618001805002080000000900900207F0000008D
:10562800B8090020BC090020014800F02BB900BFD0
:105638004C100020014800F026B900BF4C10002093
:1056480038B5064C0023054608462360FFF7CEFC14
:10565800431C02D1236803B12B6038BD54100020CD
:105668002DE9F843254FDFF8A08089460646FFF765
:10567800DBFFBB685D68A8F1110425F00305A4EB06
:1056880009042C44B4FBF8F4013C08FB04F4444539
:1056980005DA3046FFF7CEFF0020BDE8F883002189
:1056A8003046FFF7CDFFBB682B449842F1D16142E9
:1056B8003046FFF7C5FF013010D100213046FFF713
:1056C800BFFFBA68831A0F2BE3DD0D490968401A3A
:1056D8000C4943F0010308605360DAE7BB68094AE4
:1056E8002D1B45F001055D60136830461C1B1460D6
:1056F800FFF7A0FF0120BDE8F88300BF10010020DC
:105708001805002090090020800000002DE9F041D4
:1057180004468846002900F0AB80FFF785FF58F85B
:10572800042C544D22F00100A8F108031F18A968A1
:105738007E688F4226F0030602F001021BD1304436
:105748003AB958F8082C9B1A10449968DA68CA6064
:10575800916040F001025A60AB60474B1B68984269
:1057680004D3464B20461968FFF77AFF2046BDE868
:10577800F041FFF75FBF7E60002A39D158F8081C56
:105788005B1A0844996805F1080E714532D0D3F8C0
:105798000CE0C1F80CE0CEF80810B9194968C9073F
:1057A8000AD43044B9683ABB354EB14224D16B6152
:1057B8002B610122D960996040F0010159601850AD
:1057C800002AD3D1B0F5007F1AD2C0088110012277
:1057D8008A40696801300A436A6005EBC00255F8DF
:1057E80030109960083ADA6045F83030CB60BDE790
:1057F8000022D2E70122D0E7FE68CE60B160DBE785
:10580800420A042A13D882093832511C05EBC20611
:1058180055F831108E4224D10120921000FA02F27C
:10582800686802436A60DE609960B360DEE7142A44
:1058380001D85B32E9E7542A02D8020B6E32E4E75A
:10584800B2F5AA7F02D8C20B7732DEE740F2545194
:105858008A429ABF820C7C327E22D6E789688E42C1
:1058680004D04A6822F003029042F7D3CE68DAE700
:10587800BDE8F081100100201C050020C0090020AF
:105888001801002070477047F8B500BFF8BC08BC85
:105898009E467047F8B500BFF8BC08BC9E467047E6
:1058A80009426C7565474B55010402080010101039
:1058B800041010100210101008426C7565474B5503
:1058C80000000000000000000001020304060708B1
:1058D800090000000001020304000000A086010086
:1058E800400D0300801A060000350C0040420F00EE
:1058F80080841E0000093D0000127A000024F40094
:0C59080000366E010048E801006CDC0273
:08591400F4ACFF7F010000006C
:04591C00AD010008D1
:0459200089010008F1
:10592400003801400D0000160000000001000000D6
:10593400100000000101000000093D0020000020CB
:105944000000000000000000000000000000000053
:105954000000000000000000000000000000000043
:105964000000000000000000000000000000000033
:105974000000000000000000000000000000000023
:105984000000000000000000000000000000000013
:105994000000000000000000000000000000000003
:1059A40000000000000000000000000000000000F3
:1059B40000000000000000000000000000000000E3
:1059C40000000000000000000000000000000000D3
:1059D40000000000000000000000000000000000C3
:1059E40000000000000000000000000000000000B3
:1059F40000000000000000000000000000000000A3
:105A04000000000000000000000000000000000092
:105A14000000000000000000000000000000000082
:105A24000000000000000000000000000000000072
:105A34000000000000000000100100201001002000
:105A4400180100201801002020010020200100205E
:105A5400280100202801002030010020300100200E
:105A640038010020380100204001002040010020BE
:105A7400480100204801002050010020500100206E
:105A8400580100205801002060010020600100201E
:105A940068010020680100207001002070010020CE
:105AA400780100207801002080010020800100207E
:105AB400880100208801002090010020900100202E
:105AC4009801002098010020A0010020A0010020DE
